{
  "_format": "hh3-artifact-1",
  "contractName": "FamilyWallet",
  "sourceName": "contracts/FamilyWallet.sol",
  "abi": [
    {
      "inputs": [
        {
          "internalType": "address",
          "name": "initialOwner",
          "type": "address"
        }
      ],
      "stateMutability": "nonpayable",
      "type": "constructor"
    },
    {
      "inputs": [],
      "name": "AlreadyAMember",
      "type": "error"
    },
    {
      "inputs": [],
      "name": "CannotRemoveOwner",
      "type": "error"
    },
    {
      "inputs": [
        {
          "internalType": "uint256",
          "name": "requested",
          "type": "uint256"
        },
        {
          "internalType": "uint256",
          "name": "available",
          "type": "uint256"
        }
      ],
      "name": "InsufficientBalance",
      "type": "error"
    },
    {
      "inputs": [],
      "name": "NotAMember",
      "type": "error"
    },
    {
      "inputs": [
        {
          "internalType": "address",
          "name": "owner",
          "type": "address"
        }
      ],
      "name": "OwnableInvalidOwner",
      "type": "error"
    },
    {
      "inputs": [
        {
          "internalType": "address",
          "name": "account",
          "type": "address"
        }
      ],
      "name": "OwnableUnauthorizedAccount",
      "type": "error"
    },
    {
      "inputs": [],
      "name": "ReentrancyGuardReentrantCall",
      "type": "error"
    },
    {
      "inputs": [],
      "name": "ZeroAddress",
      "type": "error"
    },
    {
      "inputs": [],
      "name": "ZeroAmount",
      "type": "error"
    },
    {
      "anonymous": false,
      "inputs": [
        {
          "indexed": true,
          "internalType": "address",
          "name": "member",
          "type": "address"
        },
        {
          "indexed": false,
          "internalType": "uint256",
          "name": "amount",
          "type": "uint256"
        },
        {
          "indexed": false,
          "internalType": "uint256",
          "name": "newBalance",
          "type": "uint256"
        },
        {
          "indexed": false,
          "internalType": "uint256",
          "name": "timestamp",
          "type": "uint256"
        }
      ],
      "name": "Deposited",
      "type": "event"
    },
    {
      "anonymous": false,
      "inputs": [
        {
          "indexed": true,
          "internalType": "address",
          "name": "member",
          "type": "address"
        },
        {
          "indexed": false,
          "internalType": "uint256",
          "name": "timestamp",
          "type": "uint256"
        }
      ],
      "name": "MemberAdded",
      "type": "event"
    },
    {
      "anonymous": false,
      "inputs": [
        {
          "indexed": true,
          "internalType": "address",
          "name": "member",
          "type": "address"
        },
        {
          "indexed": false,
          "internalType": "uint256",
          "name": "timestamp",
          "type": "uint256"
        }
      ],
      "name": "MemberRemoved",
      "type": "event"
    },
    {
      "anonymous": false,
      "inputs": [
        {
          "indexed": true,
          "internalType": "address",
          "name": "previousOwner",
          "type": "address"
        },
        {
          "indexed": true,
          "internalType": "address",
          "name": "newOwner",
          "type": "address"
        }
      ],
      "name": "OwnershipTransferred",
      "type": "event"
    },
    {
      "anonymous": false,
      "inputs": [
        {
          "indexed": true,
          "internalType": "address",
          "name": "member",
          "type": "address"
        },
        {
          "indexed": false,
          "internalType": "uint256",
          "name": "amount",
          "type": "uint256"
        },
        {
          "indexed": false,
          "internalType": "uint256",
          "name": "remainingBalance",
          "type": "uint256"
        },
        {
          "indexed": false,
          "internalType": "uint256",
          "name": "timestamp",
          "type": "uint256"
        }
      ],
      "name": "Withdrawn",
      "type": "event"
    },
    {
      "inputs": [
        {
          "internalType": "address",
          "name": "member",
          "type": "address"
        }
      ],
      "name": "addMember",
      "outputs": [],
      "stateMutability": "nonpayable",
      "type": "function"
    },
    {
      "inputs": [
        {
          "internalType": "address",
          "name": "",
          "type": "address"
        }
      ],
      "name": "balances",
      "outputs": [
        {
          "internalType": "uint256",
          "name": "",
          "type": "uint256"
        }
      ],
      "stateMutability": "view",
      "type": "function"
    },
    {
      "inputs": [],
      "name": "deposit",
      "outputs": [],
      "stateMutability": "payable",
      "type": "function"
    },
    {
      "inputs": [
        {
          "internalType": "address",
          "name": "",
          "type": "address"
        }
      ],
      "name": "familyMembers",
      "outputs": [
        {
          "internalType": "bool",
          "name": "",
          "type": "bool"
        }
      ],
      "stateMutability": "view",
      "type": "function"
    },
    {
      "inputs": [
        {
          "internalType": "address",
          "name": "member",
          "type": "address"
        }
      ],
      "name": "getBalance",
      "outputs": [
        {
          "internalType": "uint256",
          "name": "",
          "type": "uint256"
        }
      ],
      "stateMutability": "view",
      "type": "function"
    },
    {
      "inputs": [],
      "name": "getMemberCount",
      "outputs": [
        {
          "internalType": "uint256",
          "name": "",
          "type": "uint256"
        }
      ],
      "stateMutability": "view",
      "type": "function"
    },
    {
      "inputs": [],
      "name": "getMembers",
      "outputs": [
        {
          "internalType": "address[]",
          "name": "",
          "type": "address[]"
        }
      ],
      "stateMutability": "view",
      "type": "function"
    },
    {
      "inputs": [],
      "name": "getTotalBalance",
      "outputs": [
        {
          "internalType": "uint256",
          "name": "",
          "type": "uint256"
        }
      ],
      "stateMutability": "view",
      "type": "function"
    },
    {
      "inputs": [
        {
          "internalType": "address",
          "name": "account",
          "type": "address"
        }
      ],
      "name": "isMember",
      "outputs": [
        {
          "internalType": "bool",
          "name": "",
          "type": "bool"
        }
      ],
      "stateMutability": "view",
      "type": "function"
    },
    {
      "inputs": [],
      "name": "owner",
      "outputs": [
        {
          "internalType": "address",
          "name": "",
          "type": "address"
        }
      ],
      "stateMutability": "view",
      "type": "function"
    },
    {
      "inputs": [
        {
          "internalType": "address",
          "name": "member",
          "type": "address"
        },
        {
          "internalType": "uint256",
          "name": "amount",
          "type": "uint256"
        }
      ],
      "name": "ownerWithdraw",
      "outputs": [],
      "stateMutability": "nonpayable",
      "type": "function"
    },
    {
      "inputs": [
        {
          "internalType": "address",
          "name": "member",
          "type": "address"
        }
      ],
      "name": "removeMember",
      "outputs": [],
      "stateMutability": "nonpayable",
      "type": "function"
    },
    {
      "inputs": [],
      "name": "renounceOwnership",
      "outputs": [],
      "stateMutability": "nonpayable",
      "type": "function"
    },
    {
      "inputs": [
        {
          "internalType": "address",
          "name": "newOwner",
          "type": "address"
        }
      ],
      "name": "transferOwnership",
      "outputs": [],
      "stateMutability": "nonpayable",
      "type": "function"
    },
    {
      "inputs": [
        {
          "internalType": "uint256",
          "name": "amount",
          "type": "uint256"
        }
      ],
      "name": "withdraw",
      "outputs": [],
      "stateMutability": "nonpayable",
      "type": "function"
    }
  ],
  "bytecode": "0x608060405234801561000f575f5ffd5b50604051610e15380380610e1583398101604081905261002e91610116565b806001600160a01b03811661005d57604051631e4fbdf760e01b81525f60048201526024015b60405180910390fd5b610066816100c7565b50600180556001600160a01b0381166100c15760405162461bcd60e51b815260206004820152601560248201527f496e76616c6964206f776e6572206164647265737300000000000000000000006044820152606401610054565b50610143565b5f80546001600160a01b038381166001600160a01b0319831681178455604051919092169283917f8be0079c531659141344cd1fd0a4f28419497f9722a3daafe3b4186f6b6457e09190a35050565b5f60208284031215610126575f5ffd5b81516001600160a01b038116811461013c575f5ffd5b9392505050565b610cc5806101505f395ff3fe6080604052600436106100e4575f3560e01c80639eab525311610087578063d0e30db011610057578063d0e30db014610277578063d9c88e141461027f578063f2fde38b1461029e578063f8b2cb4f146102bd575f5ffd5b80639eab5253146101c2578063a08c0df3146101e3578063a230c52414610221578063ca6d56dc14610258575f5ffd5b80632e1a7d4d116100c25780632e1a7d4d14610155578063715018a6146101745780638da5cb5b14610188578063997072f7146101ae575f5ffd5b80630b1ca49a146100e857806312b583491461010957806327e235e31461012a575b5f5ffd5b3480156100f3575f5ffd5b50610107610102366004610b7d565b6102f1565b005b348015610114575f5ffd5b50475b6040519081526020015b60405180910390f35b348015610135575f5ffd5b50610117610144366004610b7d565b60036020525f908152604090205481565b348015610160575f5ffd5b5061010761016f366004610b9d565b6104c8565b34801561017f575f5ffd5b50610107610676565b348015610193575f5ffd5b505f546040516001600160a01b039091168152602001610121565b3480156101b9575f5ffd5b50600454610117565b3480156101cd575f5ffd5b506101d6610689565b6040516101219190610bb4565b3480156101ee575f5ffd5b506102116101fd366004610b7d565b60026020525f908152604090205460ff1681565b6040519015158152602001610121565b34801561022c575f5ffd5b5061021161023b366004610b7d565b6001600160a01b03165f9081526002602052604090205460ff1690565b348015610263575f5ffd5b50610107610272366004610b7d565b6106e9565b6101076107e7565b34801561028a575f5ffd5b50610107610299366004610bff565b6108a8565b3480156102a9575f5ffd5b506101076102b8366004610b7d565b610a83565b3480156102c8575f5ffd5b506101176102d7366004610b7d565b6001600160a01b03165f9081526003602052604090205490565b6102f9610abd565b6001600160a01b0381165f9081526002602052604090205460ff16610331576040516305031d1160e31b815260040160405180910390fd5b5f546001600160a01b03166001600160a01b0316816001600160a01b03160361036d57604051630f368a7560e11b815260040160405180910390fd5b6001600160a01b0381165f908152600260205260408120805460ff191690555b60045481101561048157816001600160a01b0316600482815481106103b4576103b4610c27565b5f918252602090912001546001600160a01b03160361047957600480546103dd90600190610c4f565b815481106103ed576103ed610c27565b5f91825260209091200154600480546001600160a01b03909216918390811061041857610418610c27565b905f5260205f20015f6101000a8154816001600160a01b0302191690836001600160a01b03160217905550600480548061045457610454610c68565b5f8281526020902081015f1990810180546001600160a01b0319169055019055610481565b60010161038d565b50806001600160a01b03167f3ac963493df564de734d98633f1145d21512e282ba4c02d3c1011119bf7f2862426040516104bd91815260200190565b60405180910390a250565b6104d0610ae9565b335f9081526002602052604090205460ff166104ff576040516305031d1160e31b815260040160405180910390fd5b805f0361051f57604051631f2a200560e01b815260040160405180910390fd5b335f9081526003602052604090205481111561057257335f908152600360205260409081902054905163cf47918160e01b8152610569918391600401918252602082015260400190565b60405180910390fd5b335f9081526003602052604081208054839290610590908490610c4f565b90915550506040515f90339083908381818185875af1925050503d805f81146105d4576040519150601f19603f3d011682016040523d82523d5f602084013e6105d9565b606091505b505090508061061c5760405162461bcd60e51b815260206004820152600f60248201526e151c985b9cd9995c8819985a5b1959608a1b6044820152606401610569565b335f8181526003602090815260409182902054825186815291820152428183015290517f75e161b3e824b114fc1a33274bd7091918dd4e639cede50b78b15a4eea956a219181900360600190a25061067360018055565b50565b61067e610abd565b6106875f610b13565b565b606060048054806020026020016040519081016040528092919081815260200182805480156106df57602002820191905f5260205f20905b81546001600160a01b031681526001909101906020018083116106c1575b5050505050905090565b6106f1610abd565b6001600160a01b0381166107185760405163d92e233d60e01b815260040160405180910390fd5b6001600160a01b0381165f9081526002602052604090205460ff16156107515760405163a929afd160e01b815260040160405180910390fd5b6001600160a01b0381165f81815260026020526040808220805460ff191660019081179091556004805491820181559092527f8a35acfbc15ff81a39ae7d344fd709f28e8600b4aa8c65c6b64bfe7fe36bd19b90910180546001600160a01b03191683179055517fede8eed4383e9241982619b94dd83e488b274cced0fd07b8c0092a393defd52f906104bd9042815260200190565b335f9081526002602052604090205460ff16610816576040516305031d1160e31b815260040160405180910390fd5b345f0361083657604051631f2a200560e01b815260040160405180910390fd5b335f9081526003602052604081208054349290610854908490610c7c565b9091555050335f8181526003602090815260409182902054825134815291820152428183015290517f91ede45f04a37a7c170f5c1207df3b6bc748dc1e04ad5e917a241d0f52feada39181900360600190a2565b6108b0610abd565b6108b8610ae9565b6001600160a01b0382165f9081526002602052604090205460ff166108f0576040516305031d1160e31b815260040160405180910390fd5b805f0361091057604051631f2a200560e01b815260040160405180910390fd5b6001600160a01b0382165f9081526003602052604090205481111561096c576001600160a01b0382165f908152600360205260409081902054905163cf47918160e01b8152610569918391600401918252602082015260400190565b6001600160a01b0382165f9081526003602052604081208054839290610993908490610c4f565b90915550506040515f90339083908381818185875af1925050503d805f81146109d7576040519150601f19603f3d011682016040523d82523d5f602084013e6109dc565b606091505b5050905080610a1f5760405162461bcd60e51b815260206004820152600f60248201526e151c985b9cd9995c8819985a5b1959608a1b6044820152606401610569565b6001600160a01b0383165f8181526003602090815260409182902054825186815291820152428183015290517f75e161b3e824b114fc1a33274bd7091918dd4e639cede50b78b15a4eea956a219181900360600190a250610a7f60018055565b5050565b610a8b610abd565b6001600160a01b038116610ab457604051631e4fbdf760e01b81525f6004820152602401610569565b61067381610b13565b5f546001600160a01b031633146106875760405163118cdaa760e01b8152336004820152602401610569565b600260015403610b0c57604051633ee5aeb560e01b815260040160405180910390fd5b6002600155565b5f80546001600160a01b038381166001600160a01b0319831681178455604051919092169283917f8be0079c531659141344cd1fd0a4f28419497f9722a3daafe3b4186f6b6457e09190a35050565b80356001600160a01b0381168114610b78575f5ffd5b919050565b5f60208284031215610b8d575f5ffd5b610b9682610b62565b9392505050565b5f60208284031215610bad575f5ffd5b5035919050565b602080825282518282018190525f918401906040840190835b81811015610bf45783516001600160a01b0316835260209384019390920191600101610bcd565b509095945050505050565b5f5f60408385031215610c10575f5ffd5b610c1983610b62565b946020939093013593505050565b634e487b7160e01b5f52603260045260245ffd5b634e487b7160e01b5f52601160045260245ffd5b81810381811115610c6257610c62610c3b565b92915050565b634e487b7160e01b5f52603160045260245ffd5b80820180821115610c6257610c62610c3b56fea26469706673582212202968d4f3ab5faac508cc28ae9c3dadd280ca16be9854d296e85a2a0046be7ad364736f6c634300081c0033",
  "linkReferences": {},
  "deployedLinkReferences": {},
  "immutableReferences": {},
  "inputSourceName": "project/contracts/FamilyWallet.sol",
  "buildInfoId": "solc-0_8_28-410d7b78431d51dd5762433d5be50e57b3065efc"
}