{
  "_format": "hh3-artifact-1",
  "contractName": "FamilyWallet",
  "sourceName": "contracts/FamilyWallet.sol",
  "abi": [
    {
      "inputs": [
        {
          "internalType": "address",
          "name": "initialOwner",
          "type": "address"
        }
      ],
      "stateMutability": "nonpayable",
      "type": "constructor"
    },
    {
      "inputs": [],
      "name": "AlreadyAMember",
      "type": "error"
    },
    {
      "inputs": [],
      "name": "CannotRemoveOwner",
      "type": "error"
    },
    {
      "inputs": [
        {
          "internalType": "uint256",
          "name": "requested",
          "type": "uint256"
        },
        {
          "internalType": "uint256",
          "name": "available",
          "type": "uint256"
        }
      ],
      "name": "InsufficientBalance",
      "type": "error"
    },
    {
      "inputs": [],
      "name": "NotAMember",
      "type": "error"
    },
    {
      "inputs": [
        {
          "internalType": "address",
          "name": "owner",
          "type": "address"
        }
      ],
      "name": "OwnableInvalidOwner",
      "type": "error"
    },
    {
      "inputs": [
        {
          "internalType": "address",
          "name": "account",
          "type": "address"
        }
      ],
      "name": "OwnableUnauthorizedAccount",
      "type": "error"
    },
    {
      "inputs": [],
      "name": "ReentrancyGuardReentrantCall",
      "type": "error"
    },
    {
      "inputs": [],
      "name": "ZeroAddress",
      "type": "error"
    },
    {
      "inputs": [],
      "name": "ZeroAmount",
      "type": "error"
    },
    {
      "anonymous": false,
      "inputs": [
        {
          "indexed": true,
          "internalType": "address",
          "name": "member",
          "type": "address"
        },
        {
          "indexed": false,
          "internalType": "uint256",
          "name": "amount",
          "type": "uint256"
        },
        {
          "indexed": false,
          "internalType": "uint256",
          "name": "newBalance",
          "type": "uint256"
        },
        {
          "indexed": false,
          "internalType": "uint256",
          "name": "timestamp",
          "type": "uint256"
        }
      ],
      "name": "Deposited",
      "type": "event"
    },
    {
      "anonymous": false,
      "inputs": [
        {
          "indexed": true,
          "internalType": "address",
          "name": "member",
          "type": "address"
        },
        {
          "indexed": false,
          "internalType": "uint256",
          "name": "timestamp",
          "type": "uint256"
        }
      ],
      "name": "MemberAdded",
      "type": "event"
    },
    {
      "anonymous": false,
      "inputs": [
        {
          "indexed": true,
          "internalType": "address",
          "name": "member",
          "type": "address"
        },
        {
          "indexed": false,
          "internalType": "uint256",
          "name": "timestamp",
          "type": "uint256"
        }
      ],
      "name": "MemberRemoved",
      "type": "event"
    },
    {
      "anonymous": false,
      "inputs": [
        {
          "indexed": true,
          "internalType": "address",
          "name": "previousOwner",
          "type": "address"
        },
        {
          "indexed": true,
          "internalType": "address",
          "name": "newOwner",
          "type": "address"
        }
      ],
      "name": "OwnershipTransferred",
      "type": "event"
    },
    {
      "anonymous": false,
      "inputs": [
        {
          "indexed": true,
          "internalType": "address",
          "name": "member",
          "type": "address"
        },
        {
          "indexed": false,
          "internalType": "uint256",
          "name": "amount",
          "type": "uint256"
        },
        {
          "indexed": false,
          "internalType": "uint256",
          "name": "remainingBalance",
          "type": "uint256"
        },
        {
          "indexed": false,
          "internalType": "uint256",
          "name": "timestamp",
          "type": "uint256"
        }
      ],
      "name": "Withdrawn",
      "type": "event"
    },
    {
      "inputs": [
        {
          "internalType": "address",
          "name": "member",
          "type": "address"
        }
      ],
      "name": "addMember",
      "outputs": [],
      "stateMutability": "nonpayable",
      "type": "function"
    },
    {
      "inputs": [
        {
          "internalType": "address",
          "name": "",
          "type": "address"
        }
      ],
      "name": "balances",
      "outputs": [
        {
          "internalType": "uint256",
          "name": "",
          "type": "uint256"
        }
      ],
      "stateMutability": "view",
      "type": "function"
    },
    {
      "inputs": [],
      "name": "deposit",
      "outputs": [],
      "stateMutability": "payable",
      "type": "function"
    },
    {
      "inputs": [
        {
          "internalType": "address",
          "name": "",
          "type": "address"
        }
      ],
      "name": "familyMembers",
      "outputs": [
        {
          "internalType": "bool",
          "name": "",
          "type": "bool"
        }
      ],
      "stateMutability": "view",
      "type": "function"
    },
    {
      "inputs": [
        {
          "internalType": "address",
          "name": "member",
          "type": "address"
        }
      ],
      "name": "getBalance",
      "outputs": [
        {
          "internalType": "uint256",
          "name": "",
          "type": "uint256"
        }
      ],
      "stateMutability": "view",
      "type": "function"
    },
    {
      "inputs": [],
      "name": "getMemberCount",
      "outputs": [
        {
          "internalType": "uint256",
          "name": "",
          "type": "uint256"
        }
      ],
      "stateMutability": "view",
      "type": "function"
    },
    {
      "inputs": [],
      "name": "getMembers",
      "outputs": [
        {
          "internalType": "address[]",
          "name": "",
          "type": "address[]"
        }
      ],
      "stateMutability": "view",
      "type": "function"
    },
    {
      "inputs": [],
      "name": "getTotalBalance",
      "outputs": [
        {
          "internalType": "uint256",
          "name": "",
          "type": "uint256"
        }
      ],
      "stateMutability": "view",
      "type": "function"
    },
    {
      "inputs": [
        {
          "internalType": "address",
          "name": "account",
          "type": "address"
        }
      ],
      "name": "isMember",
      "outputs": [
        {
          "internalType": "bool",
          "name": "",
          "type": "bool"
        }
      ],
      "stateMutability": "view",
      "type": "function"
    },
    {
      "inputs": [
        {
          "internalType": "address",
          "name": "member",
          "type": "address"
        }
      ],
      "name": "isMemberInList",
      "outputs": [
        {
          "internalType": "bool",
          "name": "exists",
          "type": "bool"
        }
      ],
      "stateMutability": "view",
      "type": "function"
    },
    {
      "inputs": [],
      "name": "owner",
      "outputs": [
        {
          "internalType": "address",
          "name": "",
          "type": "address"
        }
      ],
      "stateMutability": "view",
      "type": "function"
    },
    {
      "inputs": [
        {
          "internalType": "address",
          "name": "member",
          "type": "address"
        },
        {
          "internalType": "uint256",
          "name": "amount",
          "type": "uint256"
        }
      ],
      "name": "ownerWithdraw",
      "outputs": [],
      "stateMutability": "nonpayable",
      "type": "function"
    },
    {
      "inputs": [
        {
          "internalType": "address",
          "name": "member",
          "type": "address"
        }
      ],
      "name": "removeMember",
      "outputs": [],
      "stateMutability": "nonpayable",
      "type": "function"
    },
    {
      "inputs": [],
      "name": "renounceOwnership",
      "outputs": [],
      "stateMutability": "nonpayable",
      "type": "function"
    },
    {
      "inputs": [
        {
          "internalType": "address",
          "name": "newOwner",
          "type": "address"
        }
      ],
      "name": "transferOwnership",
      "outputs": [],
      "stateMutability": "nonpayable",
      "type": "function"
    },
    {
      "inputs": [
        {
          "internalType": "uint256",
          "name": "amount",
          "type": "uint256"
        }
      ],
      "name": "withdraw",
      "outputs": [],
      "stateMutability": "nonpayable",
      "type": "function"
    }
  ],
  "bytecode": "0x608060405234801561000f575f5ffd5b50604051611cd9380380611cd98339818101604052810190610031919061024c565b805f73ffffffffffffffffffffffffffffffffffffffff168173ffffffffffffffffffffffffffffffffffffffff16036100a2575f6040517f1e4fbdf70000000000000000000000000000000000000000000000000000000081526004016100999190610286565b60405180910390fd5b6100b18161012d60201b60201c565b50600180819055505f73ffffffffffffffffffffffffffffffffffffffff168173ffffffffffffffffffffffffffffffffffffffff1603610127576040517f08c379a000000000000000000000000000000000000000000000000000000000815260040161011e906102f9565b60405180910390fd5b50610317565b5f5f5f9054906101000a900473ffffffffffffffffffffffffffffffffffffffff169050815f5f6101000a81548173ffffffffffffffffffffffffffffffffffffffff021916908373ffffffffffffffffffffffffffffffffffffffff1602179055508173ffffffffffffffffffffffffffffffffffffffff168173ffffffffffffffffffffffffffffffffffffffff167f8be0079c531659141344cd1fd0a4f28419497f9722a3daafe3b4186f6b6457e060405160405180910390a35050565b5f5ffd5b5f73ffffffffffffffffffffffffffffffffffffffff82169050919050565b5f61021b826101f2565b9050919050565b61022b81610211565b8114610235575f5ffd5b50565b5f8151905061024681610222565b92915050565b5f60208284031215610261576102606101ee565b5b5f61026e84828501610238565b91505092915050565b61028081610211565b82525050565b5f6020820190506102995f830184610277565b92915050565b5f82825260208201905092915050565b7f496e76616c6964206f776e6572206164647265737300000000000000000000005f82015250565b5f6102e360158361029f565b91506102ee826102af565b602082019050919050565b5f6020820190508181035f830152610310816102d7565b9050919050565b6119b5806103245f395ff3fe6080604052600436106100f2575f3560e01c8063a08c0df311610089578063d0e30db011610058578063d0e30db01461031c578063d9c88e1414610326578063f2fde38b1461034e578063f8b2cb4f14610376576100f2565b8063a08c0df314610240578063a230c5241461027c578063ca6d56dc146102b8578063cb3d4133146102e0576100f2565b8063715018a6116100c5578063715018a6146101ac5780638da5cb5b146101c2578063997072f7146101ec5780639eab525314610216576100f2565b80630b1ca49a146100f657806312b583491461011e57806327e235e3146101485780632e1a7d4d14610184575b5f5ffd5b348015610101575f5ffd5b5061011c6004803603810190610117919061155c565b6103b2565b005b348015610129575f5ffd5b506101326106c8565b60405161013f919061159f565b60405180910390f35b348015610153575f5ffd5b5061016e6004803603810190610169919061155c565b6106cf565b60405161017b919061159f565b60405180910390f35b34801561018f575f5ffd5b506101aa60048036038101906101a591906115e2565b6106e4565b005b3480156101b7575f5ffd5b506101c06109fc565b005b3480156101cd575f5ffd5b506101d6610a0f565b6040516101e3919061161c565b60405180910390f35b3480156101f7575f5ffd5b50610200610a36565b60405161020d919061159f565b60405180910390f35b348015610221575f5ffd5b5061022a610a42565b60405161023791906116ec565b60405180910390f35b34801561024b575f5ffd5b506102666004803603810190610261919061155c565b610acd565b6040516102739190611726565b60405180910390f35b348015610287575f5ffd5b506102a2600480360381019061029d919061155c565b610aea565b6040516102af9190611726565b60405180910390f35b3480156102c3575f5ffd5b506102de60048036038101906102d9919061155c565b610b3c565b005b3480156102eb575f5ffd5b506103066004803603810190610301919061155c565b610d30565b6040516103139190611726565b60405180910390f35b610324610dd8565b005b348015610331575f5ffd5b5061034c6004803603810190610347919061173f565b610f75565b005b348015610359575f5ffd5b50610374600480360381019061036f919061155c565b611296565b005b348015610381575f5ffd5b5061039c6004803603810190610397919061155c565b61131a565b6040516103a9919061159f565b60405180910390f35b6103ba611360565b60025f8273ffffffffffffffffffffffffffffffffffffffff1673ffffffffffffffffffffffffffffffffffffffff1681526020019081526020015f205f9054906101000a900460ff1661043a576040517f2818e88800000000000000000000000000000000000000000000000000000000815260040160405180910390fd5b610442610a0f565b73ffffffffffffffffffffffffffffffffffffffff168173ffffffffffffffffffffffffffffffffffffffff16036104a6576040517f1e6d14ea00000000000000000000000000000000000000000000000000000000815260040160405180910390fd5b5f60025f8373ffffffffffffffffffffffffffffffffffffffff1673ffffffffffffffffffffffffffffffffffffffff1681526020019081526020015f205f6101000a81548160ff0219169083151502179055505f5f90505b600480549050811015610676578173ffffffffffffffffffffffffffffffffffffffff16600482815481106105375761053661177d565b5b905f5260205f20015f9054906101000a900473ffffffffffffffffffffffffffffffffffffffff1673ffffffffffffffffffffffffffffffffffffffff1603610669576004600160048054905061058e91906117d7565b8154811061059f5761059e61177d565b5b905f5260205f20015f9054906101000a900473ffffffffffffffffffffffffffffffffffffffff16600482815481106105db576105da61177d565b5b905f5260205f20015f6101000a81548173ffffffffffffffffffffffffffffffffffffffff021916908373ffffffffffffffffffffffffffffffffffffffff16021790555060048054806106325761063161180a565b5b600190038181905f5260205f20015f6101000a81549073ffffffffffffffffffffffffffffffffffffffff02191690559055610676565b80806001019150506104ff565b508073ffffffffffffffffffffffffffffffffffffffff167f3ac963493df564de734d98633f1145d21512e282ba4c02d3c1011119bf7f2862426040516106bd919061159f565b60405180910390a250565b5f47905090565b6003602052805f5260405f205f915090505481565b6106ec6113e7565b60025f3373ffffffffffffffffffffffffffffffffffffffff1673ffffffffffffffffffffffffffffffffffffffff1681526020019081526020015f205f9054906101000a900460ff1661076c576040517f2818e88800000000000000000000000000000000000000000000000000000000815260040160405180910390fd5b5f81036107a5576040517f1f2a200500000000000000000000000000000000000000000000000000000000815260040160405180910390fd5b60035f3373ffffffffffffffffffffffffffffffffffffffff1673ffffffffffffffffffffffffffffffffffffffff1681526020019081526020015f2054811115610866578060035f3373ffffffffffffffffffffffffffffffffffffffff1673ffffffffffffffffffffffffffffffffffffffff1681526020019081526020015f20546040517fcf47918100000000000000000000000000000000000000000000000000000000815260040161085d929190611837565b60405180910390fd5b8060035f3373ffffffffffffffffffffffffffffffffffffffff1673ffffffffffffffffffffffffffffffffffffffff1681526020019081526020015f205f8282546108b291906117d7565b925050819055505f3373ffffffffffffffffffffffffffffffffffffffff16826040516108de9061188b565b5f6040518083038185875af1925050503d805f8114610918576040519150601f19603f3d011682016040523d82523d5f602084013e61091d565b606091505b5050905080610961576040517f08c379a0000000000000000000000000000000000000000000000000000000008152600401610958906118f9565b60405180910390fd5b3373ffffffffffffffffffffffffffffffffffffffff167f75e161b3e824b114fc1a33274bd7091918dd4e639cede50b78b15a4eea956a218360035f3373ffffffffffffffffffffffffffffffffffffffff1673ffffffffffffffffffffffffffffffffffffffff1681526020019081526020015f2054426040516109e893929190611917565b60405180910390a2506109f961142d565b50565b610a04611360565b610a0d5f611436565b565b5f5f5f9054906101000a900473ffffffffffffffffffffffffffffffffffffffff16905090565b5f600480549050905090565b60606004805480602002602001604051908101604052809291908181526020018280548015610ac357602002820191905f5260205f20905b815f9054906101000a900473ffffffffffffffffffffffffffffffffffffffff1673ffffffffffffffffffffffffffffffffffffffff1681526020019060010190808311610a7a575b5050505050905090565b6002602052805f5260405f205f915054906101000a900460ff1681565b5f60025f8373ffffffffffffffffffffffffffffffffffffffff1673ffffffffffffffffffffffffffffffffffffffff1681526020019081526020015f205f9054906101000a900460ff169050919050565b610b44611360565b5f73ffffffffffffffffffffffffffffffffffffffff168173ffffffffffffffffffffffffffffffffffffffff1603610ba9576040517fd92e233d00000000000000000000000000000000000000000000000000000000815260040160405180910390fd5b60025f8273ffffffffffffffffffffffffffffffffffffffff1673ffffffffffffffffffffffffffffffffffffffff1681526020019081526020015f205f9054906101000a900460ff1615610c2a576040517fa929afd100000000000000000000000000000000000000000000000000000000815260040160405180910390fd5b600160025f8373ffffffffffffffffffffffffffffffffffffffff1673ffffffffffffffffffffffffffffffffffffffff1681526020019081526020015f205f6101000a81548160ff021916908315150217905550600481908060018154018082558091505060019003905f5260205f20015f9091909190916101000a81548173ffffffffffffffffffffffffffffffffffffffff021916908373ffffffffffffffffffffffffffffffffffffffff1602179055508073ffffffffffffffffffffffffffffffffffffffff167fede8eed4383e9241982619b94dd83e488b274cced0fd07b8c0092a393defd52f42604051610d25919061159f565b60405180910390a250565b5f5f60048054905090505f5f90505b81811015610dcd578373ffffffffffffffffffffffffffffffffffffffff1660048281548110610d7257610d7161177d565b5b905f5260205f20015f9054906101000a900473ffffffffffffffffffffffffffffffffffffffff1673ffffffffffffffffffffffffffffffffffffffff1603610dc057600192505050610dd3565b8080600101915050610d3f565b505f9150505b919050565b60025f3373ffffffffffffffffffffffffffffffffffffffff1673ffffffffffffffffffffffffffffffffffffffff1681526020019081526020015f205f9054906101000a900460ff16610e58576040517f2818e88800000000000000000000000000000000000000000000000000000000815260040160405180910390fd5b5f3403610e91576040517f1f2a200500000000000000000000000000000000000000000000000000000000815260040160405180910390fd5b3460035f3373ffffffffffffffffffffffffffffffffffffffff1673ffffffffffffffffffffffffffffffffffffffff1681526020019081526020015f205f828254610edd919061194c565b925050819055503373ffffffffffffffffffffffffffffffffffffffff167f91ede45f04a37a7c170f5c1207df3b6bc748dc1e04ad5e917a241d0f52feada33460035f3373ffffffffffffffffffffffffffffffffffffffff1673ffffffffffffffffffffffffffffffffffffffff1681526020019081526020015f205442604051610f6b93929190611917565b60405180910390a2565b610f7d611360565b610f856113e7565b60025f8373ffffffffffffffffffffffffffffffffffffffff1673ffffffffffffffffffffffffffffffffffffffff1681526020019081526020015f205f9054906101000a900460ff16611005576040517f2818e88800000000000000000000000000000000000000000000000000000000815260040160405180910390fd5b5f810361103e576040517f1f2a200500000000000000000000000000000000000000000000000000000000815260040160405180910390fd5b60035f8373ffffffffffffffffffffffffffffffffffffffff1673ffffffffffffffffffffffffffffffffffffffff1681526020019081526020015f20548111156110ff578060035f8473ffffffffffffffffffffffffffffffffffffffff1673ffffffffffffffffffffffffffffffffffffffff1681526020019081526020015f20546040517fcf4791810000000000000000000000000000000000000000000000000000000081526004016110f6929190611837565b60405180910390fd5b8060035f8473ffffffffffffffffffffffffffffffffffffffff1673ffffffffffffffffffffffffffffffffffffffff1681526020019081526020015f205f82825461114b91906117d7565b925050819055505f3373ffffffffffffffffffffffffffffffffffffffff16826040516111779061188b565b5f6040518083038185875af1925050503d805f81146111b1576040519150601f19603f3d011682016040523d82523d5f602084013e6111b6565b606091505b50509050806111fa576040517f08c379a00000000000000000000000000000000000000000000000000000000081526004016111f1906118f9565b60405180910390fd5b8273ffffffffffffffffffffffffffffffffffffffff167f75e161b3e824b114fc1a33274bd7091918dd4e639cede50b78b15a4eea956a218360035f8773ffffffffffffffffffffffffffffffffffffffff1673ffffffffffffffffffffffffffffffffffffffff1681526020019081526020015f20544260405161128193929190611917565b60405180910390a25061129261142d565b5050565b61129e611360565b5f73ffffffffffffffffffffffffffffffffffffffff168173ffffffffffffffffffffffffffffffffffffffff160361130e575f6040517f1e4fbdf7000000000000000000000000000000000000000000000000000000008152600401611305919061161c565b60405180910390fd5b61131781611436565b50565b5f60035f8373ffffffffffffffffffffffffffffffffffffffff1673ffffffffffffffffffffffffffffffffffffffff1681526020019081526020015f20549050919050565b6113686114f7565b73ffffffffffffffffffffffffffffffffffffffff16611386610a0f565b73ffffffffffffffffffffffffffffffffffffffff16146113e5576113a96114f7565b6040517f118cdaa70000000000000000000000000000000000000000000000000000000081526004016113dc919061161c565b60405180910390fd5b565b600260015403611423576040517f3ee5aeb500000000000000000000000000000000000000000000000000000000815260040160405180910390fd5b6002600181905550565b60018081905550565b5f5f5f9054906101000a900473ffffffffffffffffffffffffffffffffffffffff169050815f5f6101000a81548173ffffffffffffffffffffffffffffffffffffffff021916908373ffffffffffffffffffffffffffffffffffffffff1602179055508173ffffffffffffffffffffffffffffffffffffffff168173ffffffffffffffffffffffffffffffffffffffff167f8be0079c531659141344cd1fd0a4f28419497f9722a3daafe3b4186f6b6457e060405160405180910390a35050565b5f33905090565b5f5ffd5b5f73ffffffffffffffffffffffffffffffffffffffff82169050919050565b5f61152b82611502565b9050919050565b61153b81611521565b8114611545575f5ffd5b50565b5f8135905061155681611532565b92915050565b5f60208284031215611571576115706114fe565b5b5f61157e84828501611548565b91505092915050565b5f819050919050565b61159981611587565b82525050565b5f6020820190506115b25f830184611590565b92915050565b6115c181611587565b81146115cb575f5ffd5b50565b5f813590506115dc816115b8565b92915050565b5f602082840312156115f7576115f66114fe565b5b5f611604848285016115ce565b91505092915050565b61161681611521565b82525050565b5f60208201905061162f5f83018461160d565b92915050565b5f81519050919050565b5f82825260208201905092915050565b5f819050602082019050919050565b61166781611521565b82525050565b5f611678838361165e565b60208301905092915050565b5f602082019050919050565b5f61169a82611635565b6116a4818561163f565b93506116af8361164f565b805f5b838110156116df5781516116c6888261166d565b97506116d183611684565b9250506001810190506116b2565b5085935050505092915050565b5f6020820190508181035f8301526117048184611690565b905092915050565b5f8115159050919050565b6117208161170c565b82525050565b5f6020820190506117395f830184611717565b92915050565b5f5f60408385031215611755576117546114fe565b5b5f61176285828601611548565b9250506020611773858286016115ce565b9150509250929050565b7f4e487b71000000000000000000000000000000000000000000000000000000005f52603260045260245ffd5b7f4e487b71000000000000000000000000000000000000000000000000000000005f52601160045260245ffd5b5f6117e182611587565b91506117ec83611587565b9250828203905081811115611804576118036117aa565b5b92915050565b7f4e487b71000000000000000000000000000000000000000000000000000000005f52603160045260245ffd5b5f60408201905061184a5f830185611590565b6118576020830184611590565b9392505050565b5f81905092915050565b50565b5f6118765f8361185e565b915061188182611868565b5f82019050919050565b5f6118958261186b565b9150819050919050565b5f82825260208201905092915050565b7f5472616e73666572206661696c656400000000000000000000000000000000005f82015250565b5f6118e3600f8361189f565b91506118ee826118af565b602082019050919050565b5f6020820190508181035f830152611910816118d7565b9050919050565b5f60608201905061192a5f830186611590565b6119376020830185611590565b6119446040830184611590565b949350505050565b5f61195682611587565b915061196183611587565b9250828201905080821115611979576119786117aa565b5b9291505056fea264697066735822122038aae8ac1fa3e287b70ffb19f77a495598ffdeb797c5bc9b3cdbb1a98928c7c564736f6c634300081c0033",
  "linkReferences": {},
  "deployedLinkReferences": {},
  "immutableReferences": {},
  "inputSourceName": "project/contracts/FamilyWallet.sol",
  "buildInfoId": "solc-0_8_28-1058e984701331933a679ea3bf8e5f6d5358beb7"
}